:020000040800F2
:100000001007002065010008591500088B1400082E
:1000100000000000000000000000000000000000E0
:100020000000000000000000000000005D15000856
:1000300000000000000000005B15000889150008A2
:100040007701000800000000770100087701000830
:1000500077010008770100087701000877010008A0
:100060000000000077010008770100087701000810
:100070007701000877010008770100080000000000
:100080007701000800000000000000007701000870
:1000900000000000770100087701000877010008E0
:1000A0007701000877010008770100087701000850
:1000B00077010008000000000000000000000000C0
:1000C00000F002F800F03EF80CA030C80838241800
:1000D0002D18671EA246AB4654465D46AC4201D180
:1000E00000F030F87E460F3EB6460FCC0126334274
:1000F00000D0FB1A3343A246AB461847881C0000C9
:10010000A81C0000103A02D378C878C1FAD8520768
:1001100001D330C830C101D504680C6070470000BD
:100120000023002400250026103A01D378C1FBD813
:10013000520700D330C100D50B6070471FB51FBDFB
:1001400010B510BD00F0C2FA1146FFF7F7FF01F03D
:1001500085FC00F0DAFA03B4FFF7F2FF03BC00F00D
:10016000E1FA00000748804707480047FEE7FEE73E
:10017000FEE7FEE7FEE7FEE704480549054A064BB1
:100180007047000013160008C1000008100100208D
:1001900010070020100300201003002001E004C01D
:1001A000091F0429FBD28B0701D50280801CC907D7
:1001B00000D00270704700290BD0C30702D0027034
:1001C000401C491E022904D3830702D50280801CEB
:1001D000891EE3E70022EEE70022DFE77047704761
:1001E00070470000F0B5F94D0C091E092C402E4057
:1001F0002F468BB0A7437DD0B543FCD0002E7AD0DC
:10020000002CFCD00D465D40ED0F2543AC1BFF25B7
:10021000AD0464190894C502440DC9022143500D70
:10022000DC0204430120C00701430443D2020191D0
:10023000200C110C00958C46010423468B430A9137
:1002400061460904E24D8A430991010A7D44491936
:100250008039097805464D4301266D18F605751B52
:100260006943C90C640B891C4C436418B5012C1BF1
:10027000250C2E04B4434C434D43210C69188909C5
:100280000591009DE90701D00121C90704912C4681
:1002900001996708CD072F434C08059DE10B4D439D
:1002A0002D0C29466646754302950D4645432E465C
:1002B000029D7D1BB44100950D465D4301942C0CBD
:1002C0002F040D465543AE462D0C3D430295039435
:1002D0007546049C2D04641B049406D2029C039D65
:1002E000641C002675410395029401AC70CC009FFC
:1002F0007D1B01E03EE162E1B441090400950791F4
:1003000001940599A4086143090C0C464443650B0C
:10031000E7040C4666467443A646640B3C430395CB
:1003200002947446049DE4042C1B049406D2029C9F
:10033000039D641C002675410395029401AC70CCAA
:10034000009F7D1BB44101940C465C430095650FF2
:10035000E7000C465443A646640F3C4303950294C1
:100360007446049DE4002C1B049406D2029C039D59
:10037000641C002675410395029401AC70CC009F6B
:100380007D1BB441AE09AF06049DC900AD092F43E2
:10039000049DA406AD060495079D34436918079192
:1003A000059DE10B4D432D0C29466646754302958C
:1003B0000D4645432E46029D7D1BB44100950D46DA
:1003C0005D4301942C0C2F040D465543AE462D0C75
:1003D0003D43029503947546049C2D04641B0494CC
:1003E00006D2029C039D641C00267541039502946D
:1003F00001AC70CC009F7D1BB44101948C05069428
:10040000079C890A611800950791019C0599A40829
:100410006143090C0D464543680BEF040D466446E5
:1004200065436C0B3C43049FED047D1BAC4602D23C
:100430000025641C6841009E019D371B85410846CC
:10044000584301950C46460FC5005443600F28439E
:100450006546E4002C1B02D20025401C6E41019D24
:100460003F1AB5412846BD09800628438446A009A5
:10047000BF064E020699A40676180743079D002082
:1004800068410A99079019430020099B0090604633
:10049000FF1913434041E20F64003A43A446044667
:1004A000D71A8C41A04203D90120009020463A4639
:1004B000C70F941840416246D20F2243644664003D
:1004C0000494009CBE466400D71AA44604460297D2
:1004D0008C417746002F01D1A04204D96046401CD0
:1004E0008446029A2046C40FA64694184041049AB6
:1004F0000546D20F224364466400D31A8D417146EB
:10050000002901D1A84202D928461A46641C10438A
:100510000122002800D0164361020020079B8919A0
:1005200004465C410223002C02DB49181346644157
:10053000089DCE0A2D145D194B056705E10A2C05AF
:100540000D1908993E43C9076940002B08D0934014
:1005500006D30022761C5141002B01D1760876008B
:100560001C4A002D43DB154241D0AA433FD0304600
:100570000BB0F0BD06180D464D41174C7642AC410C
:100580001AD395181C465C41134A6D42A24113D3FD
:10059000012252054C00D4420AD15C00D4420BD057
:1005A0004B4002D592021143E2E749004908DFE7D8
:1005B0005940C90FC90718E000200849D8E7054885
:1005C00001420DD10342F7D0F2E700000000FF071F
:1005D0002A1A00000000F07F0000E0FF0000F87F12
:1005E000114859400143C01241400020C0E7012397
:1005F000089A9B069A4205DC032252078918C90F04
:10060000C907B5E7052252078918074A1143D212D4
:100610005140ADE770B515461C4602460B462846CC
:100620002146FFF7DFFD70BDFFFFFF7F0346CA02D3
:10063000400D10B510430A1504D00124E4072043EF
:10064000002A05DB0A4CA21A04D4D040FF2A00DDA0
:10065000002010BD4A00002B01D0012000E0002046
:10066000101801225205D042F2D8C817C04310BD5D
:100670001E0400001F22030C02D10F22000402D02E
:10068000030E03D004E00020014670470002083A40
:10069000030F01D10001121F830F01D18000921EB0
:1006A000002801DB4000521E120551184205C012FD
:1006B000411810467047C10FC90700D040420122BF
:1006C00092071143D6E701218907D3E7754600F069
:1006D00025F8AE46050069465346C008C000854669
:1006E00018B020B5FFF748FD60BCB64600260027CD
:1006F000C0C5C0C5C0C5C0C5C0C5C0C5C0C5C0C5D2
:10070000403D490849008D46704710B50446C04633
:10071000C0462046FFF71FFD10BD0000004870478F
:100720001000002001491820ABBEFEE726000200A1
:100730007047EFF3108072B6FEE7000080B500F05E
:1007400065FEFFF7C0FF0E4A0E4BFFF74BFDFFF7AC
:100750006DFF0D49086080BD80B500F057FEFFF7C2
:10076000B2FF074A074BFFF73DFDFFF75FFF064962
:100770000968401A00D200200449086080B280BD98
:10078000CDCCCCCCCCC87D407000002074000020C3
:10079000B0B5044600F0E6F80546601C02D0924869
:1007A0000078041900F0DEF8401BA042FAD3B0BD77
:1007B000F0B588B00B460968002900D1B7E00246C1
:1007C0005C48824201D0052000E003200090012413
:1007D0000020054606900746019407920FE0384333
:1007E000039F5549486019680846E040069E361D3B
:1007F0000696AD1C0837641C002800D197E0661EE1
:1008000001980596B04001400291ECD0039719463B
:100810005B6803261F46049637407E1E012E13D8C0
:10082000049EAE40079A9268B243CE68AE4016432B
:10083000079A9660DA06D20F059B9A40079B5B6881
:1008400083431343079A5360032F0B46049E1ED025
:100850003046A840079AD26882439868A84010435F
:10086000079AD060022F12D11C20069A10400F2642
:100870008640059AD2089200079B9A18136AB343E0
:100880000E6986401E430B461662049E079A304648
:10089000A84011688143586882033040A84008434B
:1008A00007990860900F079A039F9CD01821394040
:1008B0000F208840059FB7431F4EF619376E8743B8
:1008C00060360520000782420AD01D48824205D0CA
:1008D0001C488242009804D1022002E0012000E07E
:1008E0000020884038433060144800685E68F10397
:1008F00002D5029F384301E0029FB8430F490860C8
:100900004868B10301D5384300E0B8430B4948605B
:1009100009480068F10201D5384300E0B8430649B0
:1009200008604868B10200D559E7B84358E708B0F5
:10093000F0BDC046000C0050001802408018024074
:10094000000400500008005000690840411E884122
:100950007047002A02D01822815070472822815007
:1009600070470000054800687047C0461E48007880
:1009700002490A68101808607047C0460801002044
:1009800010B501242002F6490A6802430A600320D8
:1009900000F00AF8002801D0204610BD00F026F82B
:1009A0000024204610BDC046B0B505460E4801786B
:1009B0000124002916D07D20C00001F063F8014613
:1009C000ED48006801F05EF800F056FC032D09D8F0
:1009D000002807D10024E0432946224600F024F8ED
:1009E000E24805602046B0BD0400002080B582B01A
:1009F0000C48416801221143416041681140019156
:100A00000199110702680A430260006808400090DB
:100A10000098082000F028FC102000F025FC02B00F
:100A200080BDC0463C10024080B500F0F7FF80BD9D
:100A3000F0B581B0032569026E4E32688A430243E5
:100A4000326001214A020024904212D1CA48026851
:100A5000706940050DD58F0206205043064901F00C
:100A600011F8801C401E03D071693942FAD100E0B0
:100A70002C46204601B0F0BD40420F00F0B587B0D3
:100A80000646807880075A4F01D400253EE005963F
:100A900001221107203F38680840049006D13868C9
:100AA000084338603868084006900698029703911A
:100AB000019216024F4C206830432060FFF752FF2E
:100AC00005462768374006D1FFF74CFF401B032837
:100AD000F7D3032500E00025059E002F01D1444FE8
:100AE0000CE003242102424F3868084055D0726957
:100AF000904256D1C00761D1002D70D004980028D3
:100B000004D1029A10680399884310603068C107C5
:100B100007D0394608390A6803239A437368134398
:100B20000B60810608D5032109033A46083A136889
:100B30008B43B168194311600121420417D53A462D
:100B4000083A13682D4C23400C4629463546366931
:100B500033431360294A521C96422E460D462146C5
:100B600005D10A043B46503B1C6814431C60000539
:100B700010D58803032292033B46083B1C6894432C
:100B8000F26814431C60824204D10804503F396863
:100B900001433960284607B0F0BD0020C007ABD044
:100BA0000CE03868019A12043B6813433B603B68D1
:100BB00093433B6088433860C0079DD00194FFF7A2
:100BC000D1FE06460C4C3868800705D4FFF7CAFEF4
:100BD000801BA042F7D3019D059E002D8ED10320DE
:100BE000000239688143706908433860002585E751
:100BF0005C1002400070004089130000FFFFFF3FBF
:100C0000F0B583B00D460121002800D1A5E0019187
:100C100002905348006807242040A84214D250494B
:100C20000868A043284308604E4EFFF79BFE074626
:100C30004B4800682040A84206D0FFF793FEC01B37
:100C4000B042F5D9032188E0029B18688107734EF2
:100C50000CD5410703D5210332680A4332600F21C6
:100C6000090232688A43996811433160C00719D17B
:100C70003B4800682040A84229D939490868A04368
:100C800028430860374FFFF76DFE0646344800687A
:100C90002040A8421BD0FFF765FE801BB842F5D963
:100CA00003215AE0586803282FD8810001A2515827
:100CB0005A4A8F46C50C0008110D00081B0D00088C
:100CC000250D000811460839096849052CE0029AEB
:100CD00010784007514D05D5200329688143D0681D
:100CE0000843286000F05CF8296889093C220A4022
:100CF0001D4989581F220A40D0401F4908601B48DF
:100D00000068FFF751FE014627E0444A516D0AE0B2
:100D1000114608390968890306E01146083909684F
:100D2000890101E0916D8907019916D51168A143E8
:100D3000014311600B4FFFF715FE06463748006868
:100D40003821014002984068C000814290D0FFF7EE
:100D500009FE801BB842F1D90321084603B0F0BD5B
:100D60000020024088130000FC1C0008080000203E
:100D7000014800687047C0460000002010B5FFF72A
:100D8000F7FF044600F082FB000B8000034908587F
:100D90001F210140CC40204610BDC0463C1D00082C
:100DA00010B51E4C20688006400F06D022683821FE
:100DB0000A401B48082A07D110BD083C206880045F
:100DC000410F1848C84010BD22680A40102A15D1AA
:100DD000616803220A40032A00D01248616849066C
:100DE000490F491C00F04EFE61684904490E484312
:100DF0006168490F491C00F045FE10BD206808409D
:100E0000202802D10120C00310BD20680840182806
:100E100001D0002010BD7D20000210BD081002404E
:100E200000127A000024F400F0B587B001270028F2
:100E300000D1C5E1049705900078C007FE4E2CD183
:100E40000598007880074CD40598007800070DD5E8
:100E5000B06838210140182900D0A6E0306E800724
:100E600004D505988069002800D1E9E1059800784B
:100E7000400700D45FE1B06838210140202900D04C
:100E8000AAE0F06D800700D452E105988068002840
:100E900000D04DE1002001274BE1B068F168032745
:100EA0003A468A4338210140102048408218504277
:100EB0005041082945D0002843D1059842680520B3
:100EC00000048242039200D1B8E0012001048A426A
:100ED00000D1B9E032688A433260810430688843C7
:100EE000B4E0B1683820084010214140F26803277F
:100EF0003A4002235340CA185142514100282BD096
:100F0000002929D1306801218C02059BDA68002A6A
:100F100000D1B8E00722D20290431A69024332603E
:100F20000802316801433160FFF71CFD0546306857
:100F3000204200D0B7E0FFF715FD401B0228F6D98C
:100F40003EE13068800300D47AE7059840680028C5
:100F500000D075E7049F33E131684905059B03D54F
:100F6000D968002900D1B9E07F21090272688A435B
:100F7000596909021143716000280DD10720C00290
:100F80003168814318690843306030688004400F3D
:100F9000AE49C140AE480160AE480068FFF704FDAD
:100FA000002800D150E7049F0AE1306E0599896955
:100FB000002900D181E0012108433066FFF7D2FC0F
:100FC0000546306E800700D550E7FFF7CBFC401B8D
:100FD00003270228F5D9F3E0012003900107F06B05
:100FE0000840029006D1F06B0843F063F06B0840B4
:100FF000069006980191984F3868C00510D4039860
:101000000402386820433860FFF7ACFC05463868B6
:10101000204205D1FFF7A6FC401B0228F7D975E056
:1010200005988768052F5BD0012F5DD0F06D03997F
:101030008843F065F06D0421884358E00120810465
:1010400032680A433260010430680843306001208E
:101050004404FFF787FC0546039800280FD030684A
:10106000204200D0ECE6FFF77DFC401B6428F6D957
:10107000A6E0FFF777FC401B642800D9A0E03068A9
:101080002042F6D1DCE6090288433060FFF76AFCB3
:1010900005463068204200D1D6E6FFF763FC401BCE
:1010A0000228F6D98CE07F20000271688143059800
:1010B0004069000208437060C6E60121884330663B
:1010C000FFF750FC0546306E800700D4CEE6FFF7F0
:1010D00049FC401B03270228F5D971E0049F6FE00B
:1010E000F06D04210143F165F06D03990843F0654B
:1010F0005A4CFFF737FC0546002F0FD0F06D8007E4
:101100000FD4FFF72FFC401BA042F7D90020032784
:101110000FE0FFF727FC401BA042F7D8F06D8007D7
:10112000F7D40298002803D1F06B01998843F0634B
:101130000120002844D00598C06900283FD0B1683C
:1011400038220A40102A03D1012818D1049F37E021
:1011500001221306316899433160022833D1039389
:1011600004925406FFF7FEFB0546306820423FD04C
:10117000FFF7F8FB401B03270228F6D920E0F068B0
:1011800003210140059B1A6A914257D17021014009
:101190005A6A914256D17F21090201409A6A12028D
:1011A000914251D11F2149040140DA6A9142049FC2
:1011B00006D1072149070840196B884200D1002752
:1011C000F8B207B0F0BDF0680327B843F060F068EC
:1011D00023490140F1605506FFF7C4FB044630681F
:1011E0002842ECD0FFF7BEFB001B0228F7D9E7E747
:1011F000F0681C490140059F2037ADCF08431043DC
:101200001902014329433943F160306803990843C7
:10121000306004980007F1680143F160FFF7A2FB1A
:10122000054630682042CAD1FFF79CFB401B0327CC
:101230000228F6D9C4E7C04600100240049FBFE769
:10124000049FBDE7049FBBE7049FB9E70024F400B7
:1012500000000020080000200070004088130000FB
:10126000FFFFFEEF8C80C11F02490A6802430A603B
:101270007047C0460000014080B500F071F980BDA4
:10128000B0B58021415C012901D10220B0BD0246E8
:1012900080322421516001680B680C680125AC4341
:1012A0000C606C07A3430B60002141661170202085
:1012B00050600846B0BD70B504468020205C01280F
:1012C00001D1022070BD2546803524206860206849
:1012D0000668026801239A4302602B7007225206B7
:1012E000836893430B438360204600F093F92068A2
:1012F0000660002028702021696070BD70B504462A
:101300008020205C012801D1022070BD2546803557
:101310002420686020680668026801239A430260FE
:101320002B7007225207836893430B438360204648
:1013300000F070F9206806600020287020216960A4
:1013400070BDB0B5002830D00446054680356868C9
:10135000002804D100202870204600F029F824201D
:101360006860206801680125A9430160204600F0FB
:1013700017FA012817D0A06A002802D0204600F0F2
:101380006DF90920C00221684A6882434A60886872
:101390002A22904388600868012202430A6020469E
:1013A00000F0C6F905462846B0BD0120B0BD0000DA
:1013B00010B586B00021059104910391029101912D
:1013C0000068644A904201D006B010BD4A48C36824
:1013D0000122059294032343C360C3682340009312
:1013E000009B036813430360006810400090049161
:1013F0000391022002900320400201900520000783
:10140000009901A9FFF7D4F906B010BDF0B583B07B
:10141000052004070421002520462A46FFF799FAF3
:1014200008212046FFF790FA0128F9D001942E46B2
:10143000029604240127019E304621463A46FFF7D2
:1014400088FA002230462146FFF783FA0821304609
:10145000FFF77AFA401E4142414102984000461887
:10146000681C172D0546E3D30424019D2846214618
:101470003A46FFF76EFA002228462146FFF769FA3E
:10148000F8054640304603B0F0BDFEE707200103F3
:10149000014800680840704708100240F0B587B066
:1014A000002406940594049403940294124801685D
:1014B00001273943016000683840019001980520F8
:1014C00005070426284631462246FFF742FA022045
:1014D000059004940397029602AE28463146FFF722
:1014E00067F9049403940820029028463146FFF7D8
:1014F0005FF907B0F0BDC0463410024010B5144883
:1015000000210C22134B016241628162E1246402DA
:1015100018C0016041608160C260016141610838AA
:10152000FFF70FFF002811D109480021FFF7E6FE61
:1015300000280BD106480021FFF7BDFE002805D189
:101540000348FFF79DFE002800D110BDFFF7F1F81A
:101550007800002000380140FEE770477047000027
:10156000B0B5401E010E01D00120B0BD054D686030
:101570000024E043032100F051FAAC60072028600A
:101580002046B0BD10E000E080B5FFF7EFF980BD68
:10159000F0B597B00AAC34212046FEF71DFE0026B8
:1015A000099608960796069605960496039602965F
:1015B0000196009601277802FFF73AFA780716900D
:1015C0007804159008201490139602251295119511
:1015D00040200F900E9638020D900A952046FFF796
:1015E00023FC002813D1099608960720069007953A
:1015F00006A82946FFF704FB002808D101960097AA
:101600006846FFF73BFA002801D117B0F0BDFFF79D
:1016100090F87047F0B581B004466834416E0029F7
:1016200013D0006885688068400F0A4E315C0A4F0D
:10163000385CC00000F026FA60802801400F315C61
:10164000385CC00000F01EFA01E0012060802080BC
:1016500001B0F0BD7C1D0008741D0008B0B5816AA2
:10166000CA070CD18A0714D44A071CD40A0724D409
:10167000CA062CD48A0634D44A063CD44CE0012253
:10168000520403685C689443C26A22435A608A0722
:10169000EAD50122120403685C689443026B22437A
:1016A0005A604A07E2D50122920403685C689443B9
:1016B000426B22435A600A07DAD50122D20303683B
:1016C0005C689443826B22435A60CA06D2D50122D9
:1016D000120303689C689443C26B22439A608A0693
:1016E000CAD50122520303689C689443026C2243CA
:1016F0009A604A0610D501221305026854689C437B
:10170000456C2C4354609D4206D103235B0554680D
:101710009C43836C23435360090607D50121C90408
:10172000026853688B43C06C18435060B0BD000022
:1017300070B582B005468C2000242C50FFF712F9BA
:1017400006462868006800070CD514480090012060
:10175000410500222846334600F0E8F8002801D071
:10176000032417E02868006840070CD50B48009058
:101770000120810500222846334600F0D7F80028D2
:1017800001D0032406E0284680302021416081609A
:101790000470EC66204602B070BDC046FFFFFF013A
:1017A000F0B581B0044600680168534A0A40A16858
:1017B00023690B4365691D43E1690D4315430560CA
:1017C0000322120343689343E2681A434260A2690A
:1017D000236A13438268494D15401D438560C26AE0
:1017E0000F239A43636A1343C362454A904209D068
:1017F000444A904208D1444800688007000F43A241
:10180000135802E0002300E0102326466836012525
:10181000EA034248914211D1082B21D80027C04643
:101820007B441B795B009F44041B221B201B1B1B5A
:101830003A00FFF7A3FA00281BD133E0082B33D876
:101840000027C0467B441B795B009F44042D342D48
:10185000322D2D2D4800FFF791FA00282DD141E0BF
:1018600000200127002804D11CE0FFF799FA002886
:1018700018D0616A49002A4A515A00F003F9400021
:1018800061684A08101800F0FDF8264901402AD086
:101890000007400F08432168C8603D4623E010461A
:1018A0000028E6D13D461EE000200127002804D193
:1018B00018E0FFF775FA002814D0616A4900184A49
:1018C000515A00F0DFF861684A08101800F0DAF8A1
:1018D00080B2102807D32168C8603D4603E0104657
:1018E0000028EAD13D46104830600020206760673C
:1018F000284601B0F0BDC046F369FFCFFFF4FF11E9
:101900000044004000380140541002400000000034
:101910000400000002000000080000000024F400A1
:101920005C1D0008F0FF000001000100F0B585B06B
:1019300004930D4604460068C0690840401A4142BD
:1019400041410020914246D1174602902046803006
:1019500001900A9E01200090C002039007E02068D9
:10196000C0692840401B41424141B94232D1701CFC
:10197000F5D0FEF7F7FF002E2FD00499401AB042A1
:101980002BD8206801684907E9D5C169039A11423B
:10199000E5D003990162EFF31080009D85F3108874
:1019A0000D214901226813688B43136080F310886E
:1019B000EFF3108085F3108821688A68AA438A6053
:1019C00080F310882020019A5060906000211170EF
:1019D000D0601FE0029805B0F0BDEFF31080009DCD
:1019E00085F310880D214901226813688B43136029
:1019F00080F31088EFF3108085F3108821688A68DF
:101A0000AA438A6080F310882020019A5060002148
:101A100011709060032005B0F0BD0000002805D4CF
:101A20000322034693430C4A9A1806E00F22024011
:101A3000083A03239A43074BD2188007C00E890146
:101A4000C9B28140FF238340106898430843106067
:101A50007047C0461CED00E000E400E0FEF790FF98
:101A6000FFF796FDFFF71AFDFFF748FDFEF766FE4C
:101A7000034CFEF771FE20806420FEF789FEF8E734
:101A80000C01002043088B421AD3002203098B4229
:101A900079D3030A8B425ED3030B8B4242D3030CF0
:101AA0008B4227D30902FF2212BA030C8B4202D3C6
:101AB0001212090203D0030B8B4233D31AE0D3E096
:101AC000411A8041401C704703460B4371D44308C0
:101AD0008B42F5D3002203098B4254D3030A8B4275
:101AE00039D3030B8B421DD3030C8B4202D3944694
:101AF0006EE0090AC30B8B4201D3CB03C01A5241DB
:101B0000830B8B4201D38B03C01A5241430B8B4290
:101B100001D34B03C01A5241030B8B4201D30B0379
:101B2000C01A5241C30A8B4201D3CB02C01A5241A0
:101B3000830A8B4201D38B02C01A5241430A8B4263
:101B400001D34B02C01A5241030A8B4201D30B024C
:101B5000C01A5241CDD2C3098B4201D3CB01C01A66
:101B6000524183098B4201D38B01C01A5241430970
:101B70008B4201D34B01C01A524103098B4201D35E
:101B80000B01C01A5241C3088B4201D3CB00C01ACB
:101B9000524183088B4201D38B00C01A5241430843
:101BA0008B4201D34B00C01A5241411A52411000DE
:101BB0007047CA0F00D04942031000D3404253403F
:101BC00000229C4603098B422DD3030A8B4212D379
:101BD0008901FC2212BA030A8B420CD389019211AB
:101BE0008B4208D3890192118B4204D3890137D0EB
:101BF000921100E08909C3098B4201D3CB01C01ABD
:101C0000524183098B4201D38B01C01A52414309CF
:101C10008B4201D34B01C01A524103098B4201D3BD
:101C20000B01C01A5241C3088B4201D3CB00C01A2A
:101C3000524183088B4201D38B00C01A5241D9D242
:101C400043088B4201D34B00C01A5241411A00D2C3
:101C500001465241104663465B1000D34042704734
:101C600063465B1000D3404201B50021004201D021
:101C7000C9430846C046C04602BD80807F7E7D7C49
:101C80007B7A7978777676757473727171706F6E0E
:101C90006E6D6C6C6B6A6A696868676666656464B9
:101CA000636362616160605F5F5E5E5D5D5C5C5B43
:101CB0005B5A5A59595858575756565555555454B2
:101CC000535352525251515050504F4F4F4E4E4D10
:101CD0004D4D4C4C4C4B4B4B4A4A4A49494948485C
:101CE000484747474746464645454544444444439C
:101CF0004343434242424241414100000000000050
:101D000000000000000000000000000000000000D3
:101D100000000000000000000000000001000000C2
:101D200002000000030000000400000006000000A4
:101D3000070000000800000009000000000000008B
:101D40000000000000000000000000000100000092
:101D50000200000003000000040000000100020077
:101D60000400060008000A000C00100020004000DB
:101D700080000001010101030701000008040204C2
:101D800008010101A81D000800000020100000004B
:101D900004010008B81D0008100000200007000022
:101DA00020010008000000000024F40001000000F1
:081DB000040000000000000027
:04000005080000C12E
:00000001FF
